{
	"contracts/vault.sol": {
		"Vault": {
			"abi": [
				{
					"inputs": [
						{
							"internalType": "address",
							"name": "_token",
							"type": "address"
						}
					],
					"stateMutability": "nonpayable",
					"type": "constructor"
				},
				{
					"inputs": [
						{
							"internalType": "address",
							"name": "",
							"type": "address"
						}
					],
					"name": "balanceOf",
					"outputs": [
						{
							"internalType": "uint256",
							"name": "",
							"type": "uint256"
						}
					],
					"stateMutability": "view",
					"type": "function"
				},
				{
					"inputs": [
						{
							"internalType": "uint256",
							"name": "_amount",
							"type": "uint256"
						}
					],
					"name": "deposit",
					"outputs": [],
					"stateMutability": "nonpayable",
					"type": "function"
				},
				{
					"inputs": [],
					"name": "token",
					"outputs": [
						{
							"internalType": "contract IERC20",
							"name": "",
							"type": "address"
						}
					],
					"stateMutability": "view",
					"type": "function"
				},
				{
					"inputs": [],
					"name": "totalSupply",
					"outputs": [
						{
							"internalType": "uint256",
							"name": "",
							"type": "uint256"
						}
					],
					"stateMutability": "view",
					"type": "function"
				},
				{
					"inputs": [
						{
							"internalType": "uint256",
							"name": "_shares",
							"type": "uint256"
						}
					],
					"name": "withdraw",
					"outputs": [],
					"stateMutability": "nonpayable",
					"type": "function"
				}
			],
			"devdoc": {
				"kind": "dev",
				"methods": {},
				"version": 1
			},
			"evm": {
				"assembly": "    /* \"contracts/vault.sol\":736:2146  contract Vault {... */\n  mstore(0x40, 0xa0)\n    /* \"contracts/vault.sol\":870:937  constructor(address _token) {... */\n  callvalue\n  dup1\n  iszero\n  tag_1\n  jumpi\n  0x00\n  dup1\n  revert\ntag_1:\n  pop\n  mload(0x40)\n  sub(codesize, bytecodeSize)\n  dup1\n  bytecodeSize\n  dup4\n  codecopy\n  dup2\n  dup2\n  add\n  0x40\n  mstore\n  dup2\n  add\n  swap1\n  tag_2\n  swap2\n  swap1\n  tag_3\n  jump\t// in\ntag_2:\n    /* \"contracts/vault.sol\":923:929  _token */\n  dup1\n    /* \"contracts/vault.sol\":908:930  token = IERC20(_token) */\n  0xffffffffffffffffffffffffffffffffffffffff\n  and\n  0x80\n  dup2\n  0xffffffffffffffffffffffffffffffffffffffff\n  and\n  dup2\n  mstore\n  pop\n  pop\n    /* \"contracts/vault.sol\":870:937  constructor(address _token) {... */\n  pop\n    /* \"contracts/vault.sol\":736:2146  contract Vault {... */\n  jump(tag_6)\n    /* \"#utility.yul\":88:205   */\ntag_8:\n    /* \"#utility.yul\":197:198   */\n  0x00\n    /* \"#utility.yul\":194:195   */\n  dup1\n    /* \"#utility.yul\":187:199   */\n  revert\n    /* \"#utility.yul\":334:460   */\ntag_10:\n    /* \"#utility.yul\":371:378   */\n  0x00\n    /* \"#utility.yul\":411:453   */\n  0xffffffffffffffffffffffffffffffffffffffff\n    /* \"#utility.yul\":404:409   */\n  dup3\n    /* \"#utility.yul\":400:454   */\n  and\n    /* \"#utility.yul\":389:454   */\n  swap1\n  pop\n    /* \"#utility.yul\":334:460   */\n  swap2\n  swap1\n  pop\n  jump\t// out\n    /* \"#utility.yul\":466:562   */\ntag_11:\n    /* \"#utility.yul\":503:510   */\n  0x00\n    /* \"#utility.yul\":532:556   */\n  tag_20\n    /* \"#utility.yul\":550:555   */\n  dup3\n    /* \"#utility.yul\":532:556   */\n  tag_10\n  jump\t// in\ntag_20:\n    /* \"#utility.yul\":521:556   */\n  swap1\n  pop\n    /* \"#utility.yul\":466:562   */\n  swap2\n  swap1\n  pop\n  jump\t// out\n    /* \"#utility.yul\":568:690   */\ntag_12:\n    /* \"#utility.yul\":641:665   */\n  tag_22\n    /* \"#utility.yul\":659:664   */\n  dup2\n    /* \"#utility.yul\":641:665   */\n  tag_11\n  jump\t// in\ntag_22:\n    /* \"#utility.yul\":634:639   */\n  dup2\n    /* \"#utility.yul\":631:666   */\n  eq\n    /* \"#utility.yul\":621:684   */\n  tag_23\n  jumpi\n    /* \"#utility.yul\":680:681   */\n  0x00\n    /* \"#utility.yul\":677:678   */\n  dup1\n    /* \"#utility.yul\":670:682   */\n  revert\n    /* \"#utility.yul\":621:684   */\ntag_23:\n    /* \"#utility.yul\":568:690   */\n  pop\n  jump\t// out\n    /* \"#utility.yul\":696:839   */\ntag_13:\n    /* \"#utility.yul\":753:758   */\n  0x00\n    /* \"#utility.yul\":784:790   */\n  dup2\n    /* \"#utility.yul\":778:791   */\n  mload\n    /* \"#utility.yul\":769:791   */\n  swap1\n  pop\n    /* \"#utility.yul\":800:833   */\n  tag_25\n    /* \"#utility.yul\":827:832   */\n  dup2\n    /* \"#utility.yul\":800:833   */\n  tag_12\n  jump\t// in\ntag_25:\n    /* \"#utility.yul\":696:839   */\n  swap3\n  swap2\n  pop\n  pop\n  jump\t// out\n    /* \"#utility.yul\":845:1196   */\ntag_3:\n    /* \"#utility.yul\":915:921   */\n  0x00\n    /* \"#utility.yul\":964:966   */\n  0x20\n    /* \"#utility.yul\":952:961   */\n  dup3\n    /* \"#utility.yul\":943:950   */\n  dup5\n    /* \"#utility.yul\":939:962   */\n  sub\n    /* \"#utility.yul\":935:967   */\n  slt\n    /* \"#utility.yul\":932:1051   */\n  iszero\n  tag_27\n  jumpi\n    /* \"#utility.yul\":970:1049   */\n  tag_28\n  tag_8\n  jump\t// in\ntag_28:\n    /* \"#utility.yul\":932:1051   */\ntag_27:\n    /* \"#utility.yul\":1090:1091   */\n  0x00\n    /* \"#utility.yul\":1115:1179   */\n  tag_29\n    /* \"#utility.yul\":1171:1178   */\n  dup5\n    /* \"#utility.yul\":1162:1168   */\n  dup3\n    /* \"#utility.yul\":1151:1160   */\n  dup6\n    /* \"#utility.yul\":1147:1169   */\n  add\n    /* \"#utility.yul\":1115:1179   */\n  tag_13\n  jump\t// in\ntag_29:\n    /* \"#utility.yul\":1105:1179   */\n  swap2\n  pop\n    /* \"#utility.yul\":1061:1189   */\n  pop\n    /* \"#utility.yul\":845:1196   */\n  swap3\n  swap2\n  pop\n  pop\n  jump\t// out\n    /* \"contracts/vault.sol\":736:2146  contract Vault {... */\ntag_6:\n  mload(0x80)\n  codecopy(0x00, dataOffset(sub_0), dataSize(sub_0))\n  0x00\n  assignImmutable(\"0x2cc0d3dcb20652cd8f106aee76b6a7391771a130885634c0eb2bbe3cde796691\")\n  return(0x00, dataSize(sub_0))\nstop\n\nsub_0: assembly {\n        /* \"contracts/vault.sol\":736:2146  contract Vault {... */\n      mstore(0x40, 0x80)\n      callvalue\n      dup1\n      iszero\n      tag_1\n      jumpi\n      0x00\n      dup1\n      revert\n    tag_1:\n      pop\n      jumpi(tag_2, lt(calldatasize, 0x04))\n      shr(0xe0, calldataload(0x00))\n      dup1\n      0x18160ddd\n      eq\n      tag_3\n      jumpi\n      dup1\n      0x2e1a7d4d\n      eq\n      tag_4\n      jumpi\n      dup1\n      0x70a08231\n      eq\n      tag_5\n      jumpi\n      dup1\n      0xb6b55f25\n      eq\n      tag_6\n      jumpi\n      dup1\n      0xfc0c546a\n      eq\n      tag_7\n      jumpi\n    tag_2:\n      0x00\n      dup1\n      revert\n        /* \"contracts/vault.sol\":793:816  uint public totalSupply */\n    tag_3:\n      tag_8\n      tag_9\n      jump\t// in\n    tag_8:\n      mload(0x40)\n      tag_10\n      swap2\n      swap1\n      tag_11\n      jump\t// in\n    tag_10:\n      mload(0x40)\n      dup1\n      swap2\n      sub\n      swap1\n      return\n        /* \"contracts/vault.sol\":1742:2144  function withdraw(uint _shares) external {... */\n    tag_4:\n      tag_12\n      0x04\n      dup1\n      calldatasize\n      sub\n      dup2\n      add\n      swap1\n      tag_13\n      swap2\n      swap1\n      tag_14\n      jump\t// in\n    tag_13:\n      tag_15\n      jump\t// in\n    tag_12:\n      stop\n        /* \"contracts/vault.sol\":822:863  mapping(address => uint) public balanceOf */\n    tag_5:\n      tag_16\n      0x04\n      dup1\n      calldatasize\n      sub\n      dup2\n      add\n      swap1\n      tag_17\n      swap2\n      swap1\n      tag_18\n      jump\t// in\n    tag_17:\n      tag_19\n      jump\t// in\n    tag_16:\n      mload(0x40)\n      tag_20\n      swap2\n      swap1\n      tag_11\n      jump\t// in\n    tag_20:\n      mload(0x40)\n      dup1\n      swap2\n      sub\n      swap1\n      return\n        /* \"contracts/vault.sol\":1207:1736  function deposit(uint _amount) external {... */\n    tag_6:\n      tag_21\n      0x04\n      dup1\n      calldatasize\n      sub\n      dup2\n      add\n      swap1\n      tag_22\n      swap2\n      swap1\n      tag_14\n      jump\t// in\n    tag_22:\n      tag_23\n      jump\t// in\n    tag_21:\n      stop\n        /* \"contracts/vault.sol\":757:786  IERC20 public immutable token */\n    tag_7:\n      tag_24\n      tag_25\n      jump\t// in\n    tag_24:\n      mload(0x40)\n      tag_26\n      swap2\n      swap1\n      tag_27\n      jump\t// in\n    tag_26:\n      mload(0x40)\n      dup1\n      swap2\n      sub\n      swap1\n      return\n        /* \"contracts/vault.sol\":793:816  uint public totalSupply */\n    tag_9:\n      sload(0x00)\n      dup2\n      jump\t// out\n        /* \"contracts/vault.sol\":1742:2144  function withdraw(uint _shares) external {... */\n    tag_15:\n        /* \"contracts/vault.sol\":1987:1998  uint amount */\n      0x00\n        /* \"contracts/vault.sol\":2046:2057  totalSupply */\n      dup1\n      sload\n        /* \"contracts/vault.sol\":2012:2017  token */\n      immutable(\"0x2cc0d3dcb20652cd8f106aee76b6a7391771a130885634c0eb2bbe3cde796691\")\n        /* \"contracts/vault.sol\":2012:2027  token.balanceOf */\n      0xffffffffffffffffffffffffffffffffffffffff\n      and\n      0x70a08231\n        /* \"contracts/vault.sol\":2036:2040  this */\n      address\n        /* \"contracts/vault.sol\":2012:2042  token.balanceOf(address(this)) */\n      mload(0x40)\n      dup3\n      0xffffffff\n      and\n      0xe0\n      shl\n      dup2\n      mstore\n      0x04\n      add\n      tag_29\n      swap2\n      swap1\n      tag_30\n      jump\t// in\n    tag_29:\n      0x20\n      mload(0x40)\n      dup1\n      dup4\n      sub\n      dup2\n      dup7\n      gas\n      staticcall\n      iszero\n      dup1\n      iszero\n      tag_32\n      jumpi\n      returndatasize\n      0x00\n      dup1\n      returndatacopy\n      revert(0x00, returndatasize)\n    tag_32:\n      pop\n      pop\n      pop\n      pop\n      mload(0x40)\n      returndatasize\n      not(0x1f)\n      0x1f\n      dup3\n      add\n      and\n      dup3\n      add\n      dup1\n      0x40\n      mstore\n      pop\n      dup2\n      add\n      swap1\n      tag_33\n      swap2\n      swap1\n      tag_34\n      jump\t// in\n    tag_33:\n        /* \"contracts/vault.sol\":2002:2009  _shares */\n      dup4\n        /* \"contracts/vault.sol\":2002:2042  _shares * token.balanceOf(address(this)) */\n      tag_35\n      swap2\n      swap1\n      tag_36\n      jump\t// in\n    tag_35:\n        /* \"contracts/vault.sol\":2001:2057  (_shares * token.balanceOf(address(this))) / totalSupply */\n      tag_37\n      swap2\n      swap1\n      tag_38\n      jump\t// in\n    tag_37:\n        /* \"contracts/vault.sol\":1987:2057  uint amount = (_shares * token.balanceOf(address(this))) / totalSupply */\n      swap1\n      pop\n        /* \"contracts/vault.sol\":2067:2093  _burn(msg.sender, _shares) */\n      tag_39\n        /* \"contracts/vault.sol\":2073:2083  msg.sender */\n      caller\n        /* \"contracts/vault.sol\":2085:2092  _shares */\n      dup4\n        /* \"contracts/vault.sol\":2067:2072  _burn */\n      tag_40\n        /* \"contracts/vault.sol\":2067:2093  _burn(msg.sender, _shares) */\n      jump\t// in\n    tag_39:\n        /* \"contracts/vault.sol\":2103:2108  token */\n      immutable(\"0x2cc0d3dcb20652cd8f106aee76b6a7391771a130885634c0eb2bbe3cde796691\")\n        /* \"contracts/vault.sol\":2103:2117  token.transfer */\n      0xffffffffffffffffffffffffffffffffffffffff\n      and\n      0xa9059cbb\n        /* \"contracts/vault.sol\":2118:2128  msg.sender */\n      caller\n        /* \"contracts/vault.sol\":2130:2136  amount */\n      dup4\n        /* \"contracts/vault.sol\":2103:2137  token.transfer(msg.sender, amount) */\n      mload(0x40)\n      dup4\n      0xffffffff\n      and\n      0xe0\n      shl\n      dup2\n      mstore\n      0x04\n      add\n      tag_41\n      swap3\n      swap2\n      swap1\n      tag_42\n      jump\t// in\n    tag_41:\n      0x20\n      mload(0x40)\n      dup1\n      dup4\n      sub\n      dup2\n      0x00\n      dup8\n      gas\n      call\n      iszero\n      dup1\n      iszero\n      tag_44\n      jumpi\n      returndatasize\n      0x00\n      dup1\n      returndatacopy\n      revert(0x00, returndatasize)\n    tag_44:\n      pop\n      pop\n      pop\n      pop\n      mload(0x40)\n      returndatasize\n      not(0x1f)\n      0x1f\n      dup3\n      add\n      and\n      dup3\n      add\n      dup1\n      0x40\n      mstore\n      pop\n      dup2\n      add\n      swap1\n      tag_45\n      swap2\n      swap1\n      tag_46\n      jump\t// in\n    tag_45:\n      pop\n        /* \"contracts/vault.sol\":1783:2144  {... */\n      pop\n        /* \"contracts/vault.sol\":1742:2144  function withdraw(uint _shares) external {... */\n      pop\n      jump\t// out\n        /* \"contracts/vault.sol\":822:863  mapping(address => uint) public balanceOf */\n    tag_19:\n      mstore(0x20, 0x01)\n      dup1\n      0x00\n      mstore\n      keccak256(0x00, 0x40)\n      0x00\n      swap2\n      pop\n      swap1\n      pop\n      sload\n      dup2\n      jump\t// out\n        /* \"contracts/vault.sol\":1207:1736  function deposit(uint _amount) external {... */\n    tag_23:\n        /* \"contracts/vault.sol\":1450:1461  uint shares */\n      0x00\n        /* \"contracts/vault.sol\":1490:1491  0 */\n      dup1\n        /* \"contracts/vault.sol\":1475:1486  totalSupply */\n      sload(0x00)\n        /* \"contracts/vault.sol\":1475:1491  totalSupply == 0 */\n      sub\n        /* \"contracts/vault.sol\":1471:1630  if (totalSupply == 0) {... */\n      tag_48\n      jumpi\n        /* \"contracts/vault.sol\":1516:1523  _amount */\n      dup2\n        /* \"contracts/vault.sol\":1507:1523  shares = _amount */\n      swap1\n      pop\n        /* \"contracts/vault.sol\":1471:1630  if (totalSupply == 0) {... */\n      jump(tag_49)\n    tag_48:\n        /* \"contracts/vault.sol\":1589:1594  token */\n      immutable(\"0x2cc0d3dcb20652cd8f106aee76b6a7391771a130885634c0eb2bbe3cde796691\")\n        /* \"contracts/vault.sol\":1589:1604  token.balanceOf */\n      0xffffffffffffffffffffffffffffffffffffffff\n      and\n      0x70a08231\n        /* \"contracts/vault.sol\":1613:1617  this */\n      address\n        /* \"contracts/vault.sol\":1589:1619  token.balanceOf(address(this)) */\n      mload(0x40)\n      dup3\n      0xffffffff\n      and\n      0xe0\n      shl\n      dup2\n      mstore\n      0x04\n      add\n      tag_50\n      swap2\n      swap1\n      tag_30\n      jump\t// in\n    tag_50:\n      0x20\n      mload(0x40)\n      dup1\n      dup4\n      sub\n      dup2\n      dup7\n      gas\n      staticcall\n      iszero\n      dup1\n      iszero\n      tag_52\n      jumpi\n      returndatasize\n      0x00\n      dup1\n      returndatacopy\n      revert(0x00, returndatasize)\n    tag_52:\n      pop\n      pop\n      pop\n      pop\n      mload(0x40)\n      returndatasize\n      not(0x1f)\n      0x1f\n      dup3\n      add\n      and\n      dup3\n      add\n      dup1\n      0x40\n      mstore\n      pop\n      dup2\n      add\n      swap1\n      tag_53\n      swap2\n      swap1\n      tag_34\n      jump\t// in\n    tag_53:\n        /* \"contracts/vault.sol\":1574:1585  totalSupply */\n      sload(0x00)\n        /* \"contracts/vault.sol\":1564:1571  _amount */\n      dup4\n        /* \"contracts/vault.sol\":1564:1585  _amount * totalSupply */\n      tag_54\n      swap2\n      swap1\n      tag_36\n      jump\t// in\n    tag_54:\n        /* \"contracts/vault.sol\":1563:1619  (_amount * totalSupply) / token.balanceOf(address(this)) */\n      tag_55\n      swap2\n      swap1\n      tag_38\n      jump\t// in\n    tag_55:\n        /* \"contracts/vault.sol\":1554:1619  shares = (_amount * totalSupply) / token.balanceOf(address(this)) */\n      swap1\n      pop\n        /* \"contracts/vault.sol\":1471:1630  if (totalSupply == 0) {... */\n    tag_49:\n        /* \"contracts/vault.sol\":1640:1665  _mint(msg.sender, shares) */\n      tag_56\n        /* \"contracts/vault.sol\":1646:1656  msg.sender */\n      caller\n        /* \"contracts/vault.sol\":1658:1664  shares */\n      dup3\n        /* \"contracts/vault.sol\":1640:1645  _mint */\n      tag_57\n        /* \"contracts/vault.sol\":1640:1665  _mint(msg.sender, shares) */\n      jump\t// in\n    tag_56:\n        /* \"contracts/vault.sol\":1675:1680  token */\n      immutable(\"0x2cc0d3dcb20652cd8f106aee76b6a7391771a130885634c0eb2bbe3cde796691\")\n        /* \"contracts/vault.sol\":1675:1693  token.transferFrom */\n      0xffffffffffffffffffffffffffffffffffffffff\n      and\n      0x23b872dd\n        /* \"contracts/vault.sol\":1694:1704  msg.sender */\n      caller\n        /* \"contracts/vault.sol\":1714:1718  this */\n      address\n        /* \"contracts/vault.sol\":1721:1728  _amount */\n      dup6\n        /* \"contracts/vault.sol\":1675:1729  token.transferFrom(msg.sender, address(this), _amount) */\n      mload(0x40)\n      dup5\n      0xffffffff\n      and\n      0xe0\n      shl\n      dup2\n      mstore\n      0x04\n      add\n      tag_58\n      swap4\n      swap3\n      swap2\n      swap1\n      tag_59\n      jump\t// in\n    tag_58:\n      0x20\n      mload(0x40)\n      dup1\n      dup4\n      sub\n      dup2\n      0x00\n      dup8\n      gas\n      call\n      iszero\n      dup1\n      iszero\n      tag_61\n      jumpi\n      returndatasize\n      0x00\n      dup1\n      returndatacopy\n      revert(0x00, returndatasize)\n    tag_61:\n      pop\n      pop\n      pop\n      pop\n      mload(0x40)\n      returndatasize\n      not(0x1f)\n      0x1f\n      dup3\n      add\n      and\n      dup3\n      add\n      dup1\n      0x40\n      mstore\n      pop\n      dup2\n      add\n      swap1\n      tag_62\n      swap2\n      swap1\n      tag_46\n      jump\t// in\n    tag_62:\n      pop\n        /* \"contracts/vault.sol\":1247:1736  {... */\n      pop\n        /* \"contracts/vault.sol\":1207:1736  function deposit(uint _amount) external {... */\n      pop\n      jump\t// out\n        /* \"contracts/vault.sol\":757:786  IERC20 public immutable token */\n    tag_25:\n      immutable(\"0x2cc0d3dcb20652cd8f106aee76b6a7391771a130885634c0eb2bbe3cde796691\")\n      dup2\n      jump\t// out\n        /* \"contracts/vault.sol\":1073:1201  function _burn(address _from, uint _shares) private {... */\n    tag_40:\n        /* \"contracts/vault.sol\":1150:1157  _shares */\n      dup1\n        /* \"contracts/vault.sol\":1135:1146  totalSupply */\n      0x00\n      dup1\n        /* \"contracts/vault.sol\":1135:1157  totalSupply -= _shares */\n      dup3\n      dup3\n      sload\n      tag_64\n      swap2\n      swap1\n      tag_65\n      jump\t// in\n    tag_64:\n      swap3\n      pop\n      pop\n      dup2\n      swap1\n      sstore\n      pop\n        /* \"contracts/vault.sol\":1187:1194  _shares */\n      dup1\n        /* \"contracts/vault.sol\":1167:1176  balanceOf */\n      0x01\n        /* \"contracts/vault.sol\":1167:1183  balanceOf[_from] */\n      0x00\n        /* \"contracts/vault.sol\":1177:1182  _from */\n      dup5\n        /* \"contracts/vault.sol\":1167:1183  balanceOf[_from] */\n      0xffffffffffffffffffffffffffffffffffffffff\n      and\n      0xffffffffffffffffffffffffffffffffffffffff\n      and\n      dup2\n      mstore\n      0x20\n      add\n      swap1\n      dup2\n      mstore\n      0x20\n      add\n      0x00\n      keccak256\n      0x00\n        /* \"contracts/vault.sol\":1167:1194  balanceOf[_from] -= _shares */\n      dup3\n      dup3\n      sload\n      tag_66\n      swap2\n      swap1\n      tag_65\n      jump\t// in\n    tag_66:\n      swap3\n      pop\n      pop\n      dup2\n      swap1\n      sstore\n      pop\n        /* \"contracts/vault.sol\":1073:1201  function _burn(address _from, uint _shares) private {... */\n      pop\n      pop\n      jump\t// out\n        /* \"contracts/vault.sol\":943:1067  function _mint(address _to, uint _shares) private {... */\n    tag_57:\n        /* \"contracts/vault.sol\":1018:1025  _shares */\n      dup1\n        /* \"contracts/vault.sol\":1003:1014  totalSupply */\n      0x00\n      dup1\n        /* \"contracts/vault.sol\":1003:1025  totalSupply += _shares */\n      dup3\n      dup3\n      sload\n      tag_68\n      swap2\n      swap1\n      tag_69\n      jump\t// in\n    tag_68:\n      swap3\n      pop\n      pop\n      dup2\n      swap1\n      sstore\n      pop\n        /* \"contracts/vault.sol\":1053:1060  _shares */\n      dup1\n        /* \"contracts/vault.sol\":1035:1044  balanceOf */\n      0x01\n        /* \"contracts/vault.sol\":1035:1049  balanceOf[_to] */\n      0x00\n        /* \"contracts/vault.sol\":1045:1048  _to */\n      dup5\n        /* \"contracts/vault.sol\":1035:1049  balanceOf[_to] */\n      0xffffffffffffffffffffffffffffffffffffffff\n      and\n      0xffffffffffffffffffffffffffffffffffffffff\n      and\n      dup2\n      mstore\n      0x20\n      add\n      swap1\n      dup2\n      mstore\n      0x20\n      add\n      0x00\n      keccak256\n      0x00\n        /* \"contracts/vault.sol\":1035:1060  balanceOf[_to] += _shares */\n      dup3\n      dup3\n      sload\n      tag_70\n      swap2\n      swap1\n      tag_69\n      jump\t// in\n    tag_70:\n      swap3\n      pop\n      pop\n      dup2\n      swap1\n      sstore\n      pop\n        /* \"contracts/vault.sol\":943:1067  function _mint(address _to, uint _shares) private {... */\n      pop\n      pop\n      jump\t// out\n        /* \"#utility.yul\":7:84   */\n    tag_71:\n        /* \"#utility.yul\":44:51   */\n      0x00\n        /* \"#utility.yul\":73:78   */\n      dup2\n        /* \"#utility.yul\":62:78   */\n      swap1\n      pop\n        /* \"#utility.yul\":7:84   */\n      swap2\n      swap1\n      pop\n      jump\t// out\n        /* \"#utility.yul\":90:208   */\n    tag_72:\n        /* \"#utility.yul\":177:201   */\n      tag_97\n        /* \"#utility.yul\":195:200   */\n      dup2\n        /* \"#utility.yul\":177:201   */\n      tag_71\n      jump\t// in\n    tag_97:\n        /* \"#utility.yul\":172:175   */\n      dup3\n        /* \"#utility.yul\":165:202   */\n      mstore\n        /* \"#utility.yul\":90:208   */\n      pop\n      pop\n      jump\t// out\n        /* \"#utility.yul\":214:436   */\n    tag_11:\n        /* \"#utility.yul\":307:311   */\n      0x00\n        /* \"#utility.yul\":345:347   */\n      0x20\n        /* \"#utility.yul\":334:343   */\n      dup3\n        /* \"#utility.yul\":330:348   */\n      add\n        /* \"#utility.yul\":322:348   */\n      swap1\n      pop\n        /* \"#utility.yul\":358:429   */\n      tag_99\n        /* \"#utility.yul\":426:427   */\n      0x00\n        /* \"#utility.yul\":415:424   */\n      dup4\n        /* \"#utility.yul\":411:428   */\n      add\n        /* \"#utility.yul\":402:408   */\n      dup5\n        /* \"#utility.yul\":358:429   */\n      tag_72\n      jump\t// in\n    tag_99:\n        /* \"#utility.yul\":214:436   */\n      swap3\n      swap2\n      pop\n      pop\n      jump\t// out\n        /* \"#utility.yul\":523:640   */\n    tag_74:\n        /* \"#utility.yul\":632:633   */\n      0x00\n        /* \"#utility.yul\":629:630   */\n      dup1\n        /* \"#utility.yul\":622:634   */\n      revert\n        /* \"#utility.yul\":769:891   */\n    tag_76:\n        /* \"#utility.yul\":842:866   */\n      tag_104\n        /* \"#utility.yul\":860:865   */\n      dup2\n        /* \"#utility.yul\":842:866   */\n      tag_71\n      jump\t// in\n    tag_104:\n        /* \"#utility.yul\":835:840   */\n      dup2\n        /* \"#utility.yul\":832:867   */\n      eq\n        /* \"#utility.yul\":822:885   */\n      tag_105\n      jumpi\n        /* \"#utility.yul\":881:882   */\n      0x00\n        /* \"#utility.yul\":878:879   */\n      dup1\n        /* \"#utility.yul\":871:883   */\n      revert\n        /* \"#utility.yul\":822:885   */\n    tag_105:\n        /* \"#utility.yul\":769:891   */\n      pop\n      jump\t// out\n        /* \"#utility.yul\":897:1036   */\n    tag_77:\n        /* \"#utility.yul\":943:948   */\n      0x00\n        /* \"#utility.yul\":981:987   */\n      dup2\n        /* \"#utility.yul\":968:988   */\n      calldataload\n        /* \"#utility.yul\":959:988   */\n      swap1\n      pop\n        /* \"#utility.yul\":997:1030   */\n      tag_107\n        /* \"#utility.yul\":1024:1029   */\n      dup2\n        /* \"#utility.yul\":997:1030   */\n      tag_76\n      jump\t// in\n    tag_107:\n        /* \"#utility.yul\":897:1036   */\n      swap3\n      swap2\n      pop\n      pop\n      jump\t// out\n        /* \"#utility.yul\":1042:1371   */\n    tag_14:\n        /* \"#utility.yul\":1101:1107   */\n      0x00\n        /* \"#utility.yul\":1150:1152   */\n      0x20\n        /* \"#utility.yul\":1138:1147   */\n      dup3\n        /* \"#utility.yul\":1129:1136   */\n      dup5\n        /* \"#utility.yul\":1125:1148   */\n      sub\n        /* \"#utility.yul\":1121:1153   */\n      slt\n        /* \"#utility.yul\":1118:1237   */\n      iszero\n      tag_109\n      jumpi\n        /* \"#utility.yul\":1156:1235   */\n      tag_110\n      tag_74\n      jump\t// in\n    tag_110:\n        /* \"#utility.yul\":1118:1237   */\n    tag_109:\n        /* \"#utility.yul\":1276:1277   */\n      0x00\n        /* \"#utility.yul\":1301:1354   */\n      tag_111\n        /* \"#utility.yul\":1346:1353   */\n      dup5\n        /* \"#utility.yul\":1337:1343   */\n      dup3\n        /* \"#utility.yul\":1326:1335   */\n      dup6\n        /* \"#utility.yul\":1322:1344   */\n      add\n        /* \"#utility.yul\":1301:1354   */\n      tag_77\n      jump\t// in\n    tag_111:\n        /* \"#utility.yul\":1291:1354   */\n      swap2\n      pop\n        /* \"#utility.yul\":1247:1364   */\n      pop\n        /* \"#utility.yul\":1042:1371   */\n      swap3\n      swap2\n      pop\n      pop\n      jump\t// out\n        /* \"#utility.yul\":1377:1503   */\n    tag_78:\n        /* \"#utility.yul\":1414:1421   */\n      0x00\n        /* \"#utility.yul\":1454:1496   */\n      0xffffffffffffffffffffffffffffffffffffffff\n        /* \"#utility.yul\":1447:1452   */\n      dup3\n        /* \"#utility.yul\":1443:1497   */\n      and\n        /* \"#utility.yul\":1432:1497   */\n      swap1\n      pop\n        /* \"#utility.yul\":1377:1503   */\n      swap2\n      swap1\n      pop\n      jump\t// out\n        /* \"#utility.yul\":1509:1605   */\n    tag_79:\n        /* \"#utility.yul\":1546:1553   */\n      0x00\n        /* \"#utility.yul\":1575:1599   */\n      tag_114\n        /* \"#utility.yul\":1593:1598   */\n      dup3\n        /* \"#utility.yul\":1575:1599   */\n      tag_78\n      jump\t// in\n    tag_114:\n        /* \"#utility.yul\":1564:1599   */\n      swap1\n      pop\n        /* \"#utility.yul\":1509:1605   */\n      swap2\n      swap1\n      pop\n      jump\t// out\n        /* \"#utility.yul\":1611:1733   */\n    tag_80:\n        /* \"#utility.yul\":1684:1708   */\n      tag_116\n        /* \"#utility.yul\":1702:1707   */\n      dup2\n        /* \"#utility.yul\":1684:1708   */\n      tag_79\n      jump\t// in\n    tag_116:\n        /* \"#utility.yul\":1677:1682   */\n      dup2\n        /* \"#utility.yul\":1674:1709   */\n      eq\n        /* \"#utility.yul\":1664:1727   */\n      tag_117\n      jumpi\n        /* \"#utility.yul\":1723:1724   */\n      0x00\n        /* \"#utility.yul\":1720:1721   */\n      dup1\n        /* \"#utility.yul\":1713:1725   */\n      revert\n        /* \"#utility.yul\":1664:1727   */\n    tag_117:\n        /* \"#utility.yul\":1611:1733   */\n      pop\n      jump\t// out\n        /* \"#utility.yul\":1739:1878   */\n    tag_81:\n        /* \"#utility.yul\":1785:1790   */\n      0x00\n        /* \"#utility.yul\":1823:1829   */\n      dup2\n        /* \"#utility.yul\":1810:1830   */\n      calldataload\n        /* \"#utility.yul\":1801:1830   */\n      swap1\n      pop\n        /* \"#utility.yul\":1839:1872   */\n      tag_119\n        /* \"#utility.yul\":1866:1871   */\n      dup2\n        /* \"#utility.yul\":1839:1872   */\n      tag_80\n      jump\t// in\n    tag_119:\n        /* \"#utility.yul\":1739:1878   */\n      swap3\n      swap2\n      pop\n      pop\n      jump\t// out\n        /* \"#utility.yul\":1884:2213   */\n    tag_18:\n        /* \"#utility.yul\":1943:1949   */\n      0x00\n        /* \"#utility.yul\":1992:1994   */\n      0x20\n        /* \"#utility.yul\":1980:1989   */\n      dup3\n        /* \"#utility.yul\":1971:1978   */\n      dup5\n        /* \"#utility.yul\":1967:1990   */\n      sub\n        /* \"#utility.yul\":1963:1995   */\n      slt\n        /* \"#utility.yul\":1960:2079   */\n      iszero\n      tag_121\n      jumpi\n        /* \"#utility.yul\":1998:2077   */\n      tag_122\n      tag_74\n      jump\t// in\n    tag_122:\n        /* \"#utility.yul\":1960:2079   */\n    tag_121:\n        /* \"#utility.yul\":2118:2119   */\n      0x00\n        /* \"#utility.yul\":2143:2196   */\n      tag_123\n        /* \"#utility.yul\":2188:2195   */\n      dup5\n        /* \"#utility.yul\":2179:2185   */\n      dup3\n        /* \"#utility.yul\":2168:2177   */\n      dup6\n        /* \"#utility.yul\":2164:2186   */\n      add\n        /* \"#utility.yul\":2143:2196   */\n      tag_81\n      jump\t// in\n    tag_123:\n        /* \"#utility.yul\":2133:2196   */\n      swap2\n      pop\n        /* \"#utility.yul\":2089:2206   */\n      pop\n        /* \"#utility.yul\":1884:2213   */\n      swap3\n      swap2\n      pop\n      pop\n      jump\t// out\n        /* \"#utility.yul\":2219:2279   */\n    tag_82:\n        /* \"#utility.yul\":2247:2250   */\n      0x00\n        /* \"#utility.yul\":2268:2273   */\n      dup2\n        /* \"#utility.yul\":2261:2273   */\n      swap1\n      pop\n        /* \"#utility.yul\":2219:2279   */\n      swap2\n      swap1\n      pop\n      jump\t// out\n        /* \"#utility.yul\":2285:2427   */\n    tag_83:\n        /* \"#utility.yul\":2335:2344   */\n      0x00\n        /* \"#utility.yul\":2368:2421   */\n      tag_126\n        /* \"#utility.yul\":2386:2420   */\n      tag_127\n        /* \"#utility.yul\":2395:2419   */\n      tag_128\n        /* \"#utility.yul\":2413:2418   */\n      dup5\n        /* \"#utility.yul\":2395:2419   */\n      tag_78\n      jump\t// in\n    tag_128:\n        /* \"#utility.yul\":2386:2420   */\n      tag_82\n      jump\t// in\n    tag_127:\n        /* \"#utility.yul\":2368:2421   */\n      tag_78\n      jump\t// in\n    tag_126:\n        /* \"#utility.yul\":2355:2421   */\n      swap1\n      pop\n        /* \"#utility.yul\":2285:2427   */\n      swap2\n      swap1\n      pop\n      jump\t// out\n        /* \"#utility.yul\":2433:2559   */\n    tag_84:\n        /* \"#utility.yul\":2483:2492   */\n      0x00\n        /* \"#utility.yul\":2516:2553   */\n      tag_130\n        /* \"#utility.yul\":2547:2552   */\n      dup3\n        /* \"#utility.yul\":2516:2553   */\n      tag_83\n      jump\t// in\n    tag_130:\n        /* \"#utility.yul\":2503:2553   */\n      swap1\n      pop\n        /* \"#utility.yul\":2433:2559   */\n      swap2\n      swap1\n      pop\n      jump\t// out\n        /* \"#utility.yul\":2565:2704   */\n    tag_85:\n        /* \"#utility.yul\":2628:2637   */\n      0x00\n        /* \"#utility.yul\":2661:2698   */\n      tag_132\n        /* \"#utility.yul\":2692:2697   */\n      dup3\n        /* \"#utility.yul\":2661:2698   */\n      tag_84\n      jump\t// in\n    tag_132:\n        /* \"#utility.yul\":2648:2698   */\n      swap1\n      pop\n        /* \"#utility.yul\":2565:2704   */\n      swap2\n      swap1\n      pop\n      jump\t// out\n        /* \"#utility.yul\":2710:2867   */\n    tag_86:\n        /* \"#utility.yul\":2810:2860   */\n      tag_134\n        /* \"#utility.yul\":2854:2859   */\n      dup2\n        /* \"#utility.yul\":2810:2860   */\n      tag_85\n      jump\t// in\n    tag_134:\n        /* \"#utility.yul\":2805:2808   */\n      dup3\n        /* \"#utility.yul\":2798:2861   */\n      mstore\n        /* \"#utility.yul\":2710:2867   */\n      pop\n      pop\n      jump\t// out\n        /* \"#utility.yul\":2873:3121   */\n    tag_27:\n        /* \"#utility.yul\":2979:2983   */\n      0x00\n        /* \"#utility.yul\":3017:3019   */\n      0x20\n        /* \"#utility.yul\":3006:3015   */\n      dup3\n        /* \"#utility.yul\":3002:3020   */\n      add\n        /* \"#utility.yul\":2994:3020   */\n      swap1\n      pop\n        /* \"#utility.yul\":3030:3114   */\n      tag_136\n        /* \"#utility.yul\":3111:3112   */\n      0x00\n        /* \"#utility.yul\":3100:3109   */\n      dup4\n        /* \"#utility.yul\":3096:3113   */\n      add\n        /* \"#utility.yul\":3087:3093   */\n      dup5\n        /* \"#utility.yul\":3030:3114   */\n      tag_86\n      jump\t// in\n    tag_136:\n        /* \"#utility.yul\":2873:3121   */\n      swap3\n      swap2\n      pop\n      pop\n      jump\t// out\n        /* \"#utility.yul\":3127:3245   */\n    tag_87:\n        /* \"#utility.yul\":3214:3238   */\n      tag_138\n        /* \"#utility.yul\":3232:3237   */\n      dup2\n        /* \"#utility.yul\":3214:3238   */\n      tag_79\n      jump\t// in\n    tag_138:\n        /* \"#utility.yul\":3209:3212   */\n      dup3\n        /* \"#utility.yul\":3202:3239   */\n      mstore\n        /* \"#utility.yul\":3127:3245   */\n      pop\n      pop\n      jump\t// out\n        /* \"#utility.yul\":3251:3473   */\n    tag_30:\n        /* \"#utility.yul\":3344:3348   */\n      0x00\n        /* \"#utility.yul\":3382:3384   */\n      0x20\n        /* \"#utility.yul\":3371:3380   */\n      dup3\n        /* \"#utility.yul\":3367:3385   */\n      add\n        /* \"#utility.yul\":3359:3385   */\n      swap1\n      pop\n        /* \"#utility.yul\":3395:3466   */\n      tag_140\n        /* \"#utility.yul\":3463:3464   */\n      0x00\n        /* \"#utility.yul\":3452:3461   */\n      dup4\n        /* \"#utility.yul\":3448:3465   */\n      add\n        /* \"#utility.yul\":3439:3445   */\n      dup5\n        /* \"#utility.yul\":3395:3466   */\n      tag_87\n      jump\t// in\n    tag_140:\n        /* \"#utility.yul\":3251:3473   */\n      swap3\n      swap2\n      pop\n      pop\n      jump\t// out\n        /* \"#utility.yul\":3479:3622   */\n    tag_88:\n        /* \"#utility.yul\":3536:3541   */\n      0x00\n        /* \"#utility.yul\":3567:3573   */\n      dup2\n        /* \"#utility.yul\":3561:3574   */\n      mload\n        /* \"#utility.yul\":3552:3574   */\n      swap1\n      pop\n        /* \"#utility.yul\":3583:3616   */\n      tag_142\n        /* \"#utility.yul\":3610:3615   */\n      dup2\n        /* \"#utility.yul\":3583:3616   */\n      tag_76\n      jump\t// in\n    tag_142:\n        /* \"#utility.yul\":3479:3622   */\n      swap3\n      swap2\n      pop\n      pop\n      jump\t// out\n        /* \"#utility.yul\":3628:3979   */\n    tag_34:\n        /* \"#utility.yul\":3698:3704   */\n      0x00\n        /* \"#utility.yul\":3747:3749   */\n      0x20\n        /* \"#utility.yul\":3735:3744   */\n      dup3\n        /* \"#utility.yul\":3726:3733   */\n      dup5\n        /* \"#utility.yul\":3722:3745   */\n      sub\n        /* \"#utility.yul\":3718:3750   */\n      slt\n        /* \"#utility.yul\":3715:3834   */\n      iszero\n      tag_144\n      jumpi\n        /* \"#utility.yul\":3753:3832   */\n      tag_145\n      tag_74\n      jump\t// in\n    tag_145:\n        /* \"#utility.yul\":3715:3834   */\n    tag_144:\n        /* \"#utility.yul\":3873:3874   */\n      0x00\n        /* \"#utility.yul\":3898:3962   */\n      tag_146\n        /* \"#utility.yul\":3954:3961   */\n      dup5\n        /* \"#utility.yul\":3945:3951   */\n      dup3\n        /* \"#utility.yul\":3934:3943   */\n      dup6\n        /* \"#utility.yul\":3930:3952   */\n      add\n        /* \"#utility.yul\":3898:3962   */\n      tag_88\n      jump\t// in\n    tag_146:\n        /* \"#utility.yul\":3888:3962   */\n      swap2\n      pop\n        /* \"#utility.yul\":3844:3972   */\n      pop\n        /* \"#utility.yul\":3628:3979   */\n      swap3\n      swap2\n      pop\n      pop\n      jump\t// out\n        /* \"#utility.yul\":3985:4165   */\n    tag_89:\n        /* \"#utility.yul\":4033:4110   */\n      0x4e487b7100000000000000000000000000000000000000000000000000000000\n        /* \"#utility.yul\":4030:4031   */\n      0x00\n        /* \"#utility.yul\":4023:4111   */\n      mstore\n        /* \"#utility.yul\":4130:4134   */\n      0x11\n        /* \"#utility.yul\":4127:4128   */\n      0x04\n        /* \"#utility.yul\":4120:4135   */\n      mstore\n        /* \"#utility.yul\":4154:4158   */\n      0x24\n        /* \"#utility.yul\":4151:4152   */\n      0x00\n        /* \"#utility.yul\":4144:4159   */\n      revert\n        /* \"#utility.yul\":4171:4581   */\n    tag_36:\n        /* \"#utility.yul\":4211:4218   */\n      0x00\n        /* \"#utility.yul\":4234:4254   */\n      tag_149\n        /* \"#utility.yul\":4252:4253   */\n      dup3\n        /* \"#utility.yul\":4234:4254   */\n      tag_71\n      jump\t// in\n    tag_149:\n        /* \"#utility.yul\":4229:4254   */\n      swap2\n      pop\n        /* \"#utility.yul\":4268:4288   */\n      tag_150\n        /* \"#utility.yul\":4286:4287   */\n      dup4\n        /* \"#utility.yul\":4268:4288   */\n      tag_71\n      jump\t// in\n    tag_150:\n        /* \"#utility.yul\":4263:4288   */\n      swap3\n      pop\n        /* \"#utility.yul\":4323:4324   */\n      dup3\n        /* \"#utility.yul\":4320:4321   */\n      dup3\n        /* \"#utility.yul\":4316:4325   */\n      mul\n        /* \"#utility.yul\":4345:4375   */\n      tag_151\n        /* \"#utility.yul\":4363:4374   */\n      dup2\n        /* \"#utility.yul\":4345:4375   */\n      tag_71\n      jump\t// in\n    tag_151:\n        /* \"#utility.yul\":4334:4375   */\n      swap2\n      pop\n        /* \"#utility.yul\":4524:4525   */\n      dup3\n        /* \"#utility.yul\":4515:4522   */\n      dup3\n        /* \"#utility.yul\":4511:4526   */\n      div\n        /* \"#utility.yul\":4508:4509   */\n      dup5\n        /* \"#utility.yul\":4505:4527   */\n      eq\n        /* \"#utility.yul\":4485:4486   */\n      dup4\n        /* \"#utility.yul\":4478:4487   */\n      iszero\n        /* \"#utility.yul\":4458:4541   */\n      or\n        /* \"#utility.yul\":4435:4574   */\n      tag_152\n      jumpi\n        /* \"#utility.yul\":4554:4572   */\n      tag_153\n      tag_89\n      jump\t// in\n    tag_153:\n        /* \"#utility.yul\":4435:4574   */\n    tag_152:\n        /* \"#utility.yul\":4219:4581   */\n      pop\n        /* \"#utility.yul\":4171:4581   */\n      swap3\n      swap2\n      pop\n      pop\n      jump\t// out\n        /* \"#utility.yul\":4587:4767   */\n    tag_90:\n        /* \"#utility.yul\":4635:4712   */\n      0x4e487b7100000000000000000000000000000000000000000000000000000000\n        /* \"#utility.yul\":4632:4633   */\n      0x00\n        /* \"#utility.yul\":4625:4713   */\n      mstore\n        /* \"#utility.yul\":4732:4736   */\n      0x12\n        /* \"#utility.yul\":4729:4730   */\n      0x04\n        /* \"#utility.yul\":4722:4737   */\n      mstore\n        /* \"#utility.yul\":4756:4760   */\n      0x24\n        /* \"#utility.yul\":4753:4754   */\n      0x00\n        /* \"#utility.yul\":4746:4761   */\n      revert\n        /* \"#utility.yul\":4773:4958   */\n    tag_38:\n        /* \"#utility.yul\":4813:4814   */\n      0x00\n        /* \"#utility.yul\":4830:4850   */\n      tag_156\n        /* \"#utility.yul\":4848:4849   */\n      dup3\n        /* \"#utility.yul\":4830:4850   */\n      tag_71\n      jump\t// in\n    tag_156:\n        /* \"#utility.yul\":4825:4850   */\n      swap2\n      pop\n        /* \"#utility.yul\":4864:4884   */\n      tag_157\n        /* \"#utility.yul\":4882:4883   */\n      dup4\n        /* \"#utility.yul\":4864:4884   */\n      tag_71\n      jump\t// in\n    tag_157:\n        /* \"#utility.yul\":4859:4884   */\n      swap3\n      pop\n        /* \"#utility.yul\":4903:4904   */\n      dup3\n        /* \"#utility.yul\":4893:4928   */\n      tag_158\n      jumpi\n        /* \"#utility.yul\":4908:4926   */\n      tag_159\n      tag_90\n      jump\t// in\n    tag_159:\n        /* \"#utility.yul\":4893:4928   */\n    tag_158:\n        /* \"#utility.yul\":4950:4951   */\n      dup3\n        /* \"#utility.yul\":4947:4948   */\n      dup3\n        /* \"#utility.yul\":4943:4952   */\n      div\n        /* \"#utility.yul\":4938:4952   */\n      swap1\n      pop\n        /* \"#utility.yul\":4773:4958   */\n      swap3\n      swap2\n      pop\n      pop\n      jump\t// out\n        /* \"#utility.yul\":4964:5296   */\n    tag_42:\n        /* \"#utility.yul\":5085:5089   */\n      0x00\n        /* \"#utility.yul\":5123:5125   */\n      0x40\n        /* \"#utility.yul\":5112:5121   */\n      dup3\n        /* \"#utility.yul\":5108:5126   */\n      add\n        /* \"#utility.yul\":5100:5126   */\n      swap1\n      pop\n        /* \"#utility.yul\":5136:5207   */\n      tag_161\n        /* \"#utility.yul\":5204:5205   */\n      0x00\n        /* \"#utility.yul\":5193:5202   */\n      dup4\n        /* \"#utility.yul\":5189:5206   */\n      add\n        /* \"#utility.yul\":5180:5186   */\n      dup6\n        /* \"#utility.yul\":5136:5207   */\n      tag_87\n      jump\t// in\n    tag_161:\n        /* \"#utility.yul\":5217:5289   */\n      tag_162\n        /* \"#utility.yul\":5285:5287   */\n      0x20\n        /* \"#utility.yul\":5274:5283   */\n      dup4\n        /* \"#utility.yul\":5270:5288   */\n      add\n        /* \"#utility.yul\":5261:5267   */\n      dup5\n        /* \"#utility.yul\":5217:5289   */\n      tag_72\n      jump\t// in\n    tag_162:\n        /* \"#utility.yul\":4964:5296   */\n      swap4\n      swap3\n      pop\n      pop\n      pop\n      jump\t// out\n        /* \"#utility.yul\":5302:5392   */\n    tag_91:\n        /* \"#utility.yul\":5336:5343   */\n      0x00\n        /* \"#utility.yul\":5379:5384   */\n      dup2\n        /* \"#utility.yul\":5372:5385   */\n      iszero\n        /* \"#utility.yul\":5365:5386   */\n      iszero\n        /* \"#utility.yul\":5354:5386   */\n      swap1\n      pop\n        /* \"#utility.yul\":5302:5392   */\n      swap2\n      swap1\n      pop\n      jump\t// out\n        /* \"#utility.yul\":5398:5514   */\n    tag_92:\n        /* \"#utility.yul\":5468:5489   */\n      tag_165\n        /* \"#utility.yul\":5483:5488   */\n      dup2\n        /* \"#utility.yul\":5468:5489   */\n      tag_91\n      jump\t// in\n    tag_165:\n        /* \"#utility.yul\":5461:5466   */\n      dup2\n        /* \"#utility.yul\":5458:5490   */\n      eq\n        /* \"#utility.yul\":5448:5508   */\n      tag_166\n      jumpi\n        /* \"#utility.yul\":5504:5505   */\n      0x00\n        /* \"#utility.yul\":5501:5502   */\n      dup1\n        /* \"#utility.yul\":5494:5506   */\n      revert\n        /* \"#utility.yul\":5448:5508   */\n    tag_166:\n        /* \"#utility.yul\":5398:5514   */\n      pop\n      jump\t// out\n        /* \"#utility.yul\":5520:5657   */\n    tag_93:\n        /* \"#utility.yul\":5574:5579   */\n      0x00\n        /* \"#utility.yul\":5605:5611   */\n      dup2\n        /* \"#utility.yul\":5599:5612   */\n      mload\n        /* \"#utility.yul\":5590:5612   */\n      swap1\n      pop\n        /* \"#utility.yul\":5621:5651   */\n      tag_168\n        /* \"#utility.yul\":5645:5650   */\n      dup2\n        /* \"#utility.yul\":5621:5651   */\n      tag_92\n      jump\t// in\n    tag_168:\n        /* \"#utility.yul\":5520:5657   */\n      swap3\n      swap2\n      pop\n      pop\n      jump\t// out\n        /* \"#utility.yul\":5663:6008   */\n    tag_46:\n        /* \"#utility.yul\":5730:5736   */\n      0x00\n        /* \"#utility.yul\":5779:5781   */\n      0x20\n        /* \"#utility.yul\":5767:5776   */\n      dup3\n        /* \"#utility.yul\":5758:5765   */\n      dup5\n        /* \"#utility.yul\":5754:5777   */\n      sub\n        /* \"#utility.yul\":5750:5782   */\n      slt\n        /* \"#utility.yul\":5747:5866   */\n      iszero\n      tag_170\n      jumpi\n        /* \"#utility.yul\":5785:5864   */\n      tag_171\n      tag_74\n      jump\t// in\n    tag_171:\n        /* \"#utility.yul\":5747:5866   */\n    tag_170:\n        /* \"#utility.yul\":5905:5906   */\n      0x00\n        /* \"#utility.yul\":5930:5991   */\n      tag_172\n        /* \"#utility.yul\":5983:5990   */\n      dup5\n        /* \"#utility.yul\":5974:5980   */\n      dup3\n        /* \"#utility.yul\":5963:5972   */\n      dup6\n        /* \"#utility.yul\":5959:5981   */\n      add\n        /* \"#utility.yul\":5930:5991   */\n      tag_93\n      jump\t// in\n    tag_172:\n        /* \"#utility.yul\":5920:5991   */\n      swap2\n      pop\n        /* \"#utility.yul\":5876:6001   */\n      pop\n        /* \"#utility.yul\":5663:6008   */\n      swap3\n      swap2\n      pop\n      pop\n      jump\t// out\n        /* \"#utility.yul\":6014:6456   */\n    tag_59:\n        /* \"#utility.yul\":6163:6167   */\n      0x00\n        /* \"#utility.yul\":6201:6203   */\n      0x60\n        /* \"#utility.yul\":6190:6199   */\n      dup3\n        /* \"#utility.yul\":6186:6204   */\n      add\n        /* \"#utility.yul\":6178:6204   */\n      swap1\n      pop\n        /* \"#utility.yul\":6214:6285   */\n      tag_174\n        /* \"#utility.yul\":6282:6283   */\n      0x00\n        /* \"#utility.yul\":6271:6280   */\n      dup4\n        /* \"#utility.yul\":6267:6284   */\n      add\n        /* \"#utility.yul\":6258:6264   */\n      dup7\n        /* \"#utility.yul\":6214:6285   */\n      tag_87\n      jump\t// in\n    tag_174:\n        /* \"#utility.yul\":6295:6367   */\n      tag_175\n        /* \"#utility.yul\":6363:6365   */\n      0x20\n        /* \"#utility.yul\":6352:6361   */\n      dup4\n        /* \"#utility.yul\":6348:6366   */\n      add\n        /* \"#utility.yul\":6339:6345   */\n      dup6\n        /* \"#utility.yul\":6295:6367   */\n      tag_87\n      jump\t// in\n    tag_175:\n        /* \"#utility.yul\":6377:6449   */\n      tag_176\n        /* \"#utility.yul\":6445:6447   */\n      0x40\n        /* \"#utility.yul\":6434:6443   */\n      dup4\n        /* \"#utility.yul\":6430:6448   */\n      add\n        /* \"#utility.yul\":6421:6427   */\n      dup5\n        /* \"#utility.yul\":6377:6449   */\n      tag_72\n      jump\t// in\n    tag_176:\n        /* \"#utility.yul\":6014:6456   */\n      swap5\n      swap4\n      pop\n      pop\n      pop\n      pop\n      jump\t// out\n        /* \"#utility.yul\":6462:6656   */\n    tag_65:\n        /* \"#utility.yul\":6502:6506   */\n      0x00\n        /* \"#utility.yul\":6522:6542   */\n      tag_178\n        /* \"#utility.yul\":6540:6541   */\n      dup3\n        /* \"#utility.yul\":6522:6542   */\n      tag_71\n      jump\t// in\n    tag_178:\n        /* \"#utility.yul\":6517:6542   */\n      swap2\n      pop\n        /* \"#utility.yul\":6556:6576   */\n      tag_179\n        /* \"#utility.yul\":6574:6575   */\n      dup4\n        /* \"#utility.yul\":6556:6576   */\n      tag_71\n      jump\t// in\n    tag_179:\n        /* \"#utility.yul\":6551:6576   */\n      swap3\n      pop\n        /* \"#utility.yul\":6600:6601   */\n      dup3\n        /* \"#utility.yul\":6597:6598   */\n      dup3\n        /* \"#utility.yul\":6593:6602   */\n      sub\n        /* \"#utility.yul\":6585:6602   */\n      swap1\n      pop\n        /* \"#utility.yul\":6624:6625   */\n      dup2\n        /* \"#utility.yul\":6618:6622   */\n      dup2\n        /* \"#utility.yul\":6615:6626   */\n      gt\n        /* \"#utility.yul\":6612:6649   */\n      iszero\n      tag_180\n      jumpi\n        /* \"#utility.yul\":6629:6647   */\n      tag_181\n      tag_89\n      jump\t// in\n    tag_181:\n        /* \"#utility.yul\":6612:6649   */\n    tag_180:\n        /* \"#utility.yul\":6462:6656   */\n      swap3\n      swap2\n      pop\n      pop\n      jump\t// out\n        /* \"#utility.yul\":6662:6853   */\n    tag_69:\n        /* \"#utility.yul\":6702:6705   */\n      0x00\n        /* \"#utility.yul\":6721:6741   */\n      tag_183\n        /* \"#utility.yul\":6739:6740   */\n      dup3\n        /* \"#utility.yul\":6721:6741   */\n      tag_71\n      jump\t// in\n    tag_183:\n        /* \"#utility.yul\":6716:6741   */\n      swap2\n      pop\n        /* \"#utility.yul\":6755:6775   */\n      tag_184\n        /* \"#utility.yul\":6773:6774   */\n      dup4\n        /* \"#utility.yul\":6755:6775   */\n      tag_71\n      jump\t// in\n    tag_184:\n        /* \"#utility.yul\":6750:6775   */\n      swap3\n      pop\n        /* \"#utility.yul\":6798:6799   */\n      dup3\n        /* \"#utility.yul\":6795:6796   */\n      dup3\n        /* \"#utility.yul\":6791:6800   */\n      add\n        /* \"#utility.yul\":6784:6800   */\n      swap1\n      pop\n        /* \"#utility.yul\":6819:6822   */\n      dup1\n        /* \"#utility.yul\":6816:6817   */\n      dup3\n        /* \"#utility.yul\":6813:6823   */\n      gt\n        /* \"#utility.yul\":6810:6846   */\n      iszero\n      tag_185\n      jumpi\n        /* \"#utility.yul\":6826:6844   */\n      tag_186\n      tag_89\n      jump\t// in\n    tag_186:\n        /* \"#utility.yul\":6810:6846   */\n    tag_185:\n        /* \"#utility.yul\":6662:6853   */\n      swap3\n      swap2\n      pop\n      pop\n      jump\t// out\n\n    auxdata: 0xa26469706673582212205d4acaa2ed7f7da6053dffb8463fa467a350f5c4f26fb3d702c11ea77f61f11964736f6c634300081a0033\n}\n",
				"bytecode": {
					"linkReferences": {},
					"object": "60a060405234801561000f575f80fd5b50604051610a17380380610a17833981810160405281019061003191906100c9565b8073ffffffffffffffffffffffffffffffffffffffff1660808173ffffffffffffffffffffffffffffffffffffffff1681525050506100f4565b5f80fd5b5f73ffffffffffffffffffffffffffffffffffffffff82169050919050565b5f6100988261006f565b9050919050565b6100a88161008e565b81146100b2575f80fd5b50565b5f815190506100c38161009f565b92915050565b5f602082840312156100de576100dd61006b565b5b5f6100eb848285016100b5565b91505092915050565b6080516108ef6101285f395f8181610107015281816101c0015281816102860152818161034201526103e401526108ef5ff3fe608060405234801561000f575f80fd5b5060043610610055575f3560e01c806318160ddd146100595780632e1a7d4d1461007757806370a0823114610093578063b6b55f25146100c3578063fc0c546a146100df575b5f80fd5b6100616100fd565b60405161006e91906104fa565b60405180910390f35b610091600480360381019061008c9190610541565b610102565b005b6100ad60048036038101906100a891906105c6565b61025e565b6040516100ba91906104fa565b60405180910390f35b6100dd60048036038101906100d89190610541565b610273565b005b6100e76103e2565b6040516100f4919061064c565b60405180910390f35b5f5481565b5f80547f000000000000000000000000000000000000000000000000000000000000000073ffffffffffffffffffffffffffffffffffffffff166370a08231306040518263ffffffff1660e01b815260040161015e9190610674565b602060405180830381865afa158015610179573d5f803e3d5ffd5b505050506040513d601f19601f8201168201806040525081019061019d91906106a1565b836101a891906106f9565b6101b29190610767565b90506101be3383610406565b7f000000000000000000000000000000000000000000000000000000000000000073ffffffffffffffffffffffffffffffffffffffff1663a9059cbb33836040518363ffffffff1660e01b8152600401610219929190610797565b6020604051808303815f875af1158015610235573d5f803e3d5ffd5b505050506040513d601f19601f8201168201806040525081019061025991906107f3565b505050565b6001602052805f5260405f205f915090505481565b5f805f540361028457819050610336565b7f000000000000000000000000000000000000000000000000000000000000000073ffffffffffffffffffffffffffffffffffffffff166370a08231306040518263ffffffff1660e01b81526004016102dd9190610674565b602060405180830381865afa1580156102f8573d5f803e3d5ffd5b505050506040513d601f19601f8201168201806040525081019061031c91906106a1565b5f548361032991906106f9565b6103339190610767565b90505b6103403382610474565b7f000000000000000000000000000000000000000000000000000000000000000073ffffffffffffffffffffffffffffffffffffffff166323b872dd3330856040518463ffffffff1660e01b815260040161039d9392919061081e565b6020604051808303815f875af11580156103b9573d5f803e3d5ffd5b505050506040513d601f19601f820116820180604052508101906103dd91906107f3565b505050565b7f000000000000000000000000000000000000000000000000000000000000000081565b805f808282546104169190610853565b925050819055508060015f8473ffffffffffffffffffffffffffffffffffffffff1673ffffffffffffffffffffffffffffffffffffffff1681526020019081526020015f205f8282546104699190610853565b925050819055505050565b805f808282546104849190610886565b925050819055508060015f8473ffffffffffffffffffffffffffffffffffffffff1673ffffffffffffffffffffffffffffffffffffffff1681526020019081526020015f205f8282546104d79190610886565b925050819055505050565b5f819050919050565b6104f4816104e2565b82525050565b5f60208201905061050d5f8301846104eb565b92915050565b5f80fd5b610520816104e2565b811461052a575f80fd5b50565b5f8135905061053b81610517565b92915050565b5f6020828403121561055657610555610513565b5b5f6105638482850161052d565b91505092915050565b5f73ffffffffffffffffffffffffffffffffffffffff82169050919050565b5f6105958261056c565b9050919050565b6105a58161058b565b81146105af575f80fd5b50565b5f813590506105c08161059c565b92915050565b5f602082840312156105db576105da610513565b5b5f6105e8848285016105b2565b91505092915050565b5f819050919050565b5f61061461060f61060a8461056c565b6105f1565b61056c565b9050919050565b5f610625826105fa565b9050919050565b5f6106368261061b565b9050919050565b6106468161062c565b82525050565b5f60208201905061065f5f83018461063d565b92915050565b61066e8161058b565b82525050565b5f6020820190506106875f830184610665565b92915050565b5f8151905061069b81610517565b92915050565b5f602082840312156106b6576106b5610513565b5b5f6106c38482850161068d565b91505092915050565b7f4e487b71000000000000000000000000000000000000000000000000000000005f52601160045260245ffd5b5f610703826104e2565b915061070e836104e2565b925082820261071c816104e2565b91508282048414831517610733576107326106cc565b5b5092915050565b7f4e487b71000000000000000000000000000000000000000000000000000000005f52601260045260245ffd5b5f610771826104e2565b915061077c836104e2565b92508261078c5761078b61073a565b5b828204905092915050565b5f6040820190506107aa5f830185610665565b6107b760208301846104eb565b9392505050565b5f8115159050919050565b6107d2816107be565b81146107dc575f80fd5b50565b5f815190506107ed816107c9565b92915050565b5f6020828403121561080857610807610513565b5b5f610815848285016107df565b91505092915050565b5f6060820190506108315f830186610665565b61083e6020830185610665565b61084b60408301846104eb565b949350505050565b5f61085d826104e2565b9150610868836104e2565b92508282039050818111156108805761087f6106cc565b5b92915050565b5f610890826104e2565b915061089b836104e2565b92508282019050808211156108b3576108b26106cc565b5b9291505056fea26469706673582212205d4acaa2ed7f7da6053dffb8463fa467a350f5c4f26fb3d702c11ea77f61f11964736f6c634300081a0033",
					"opcodes": "PUSH1 0xA0 PUSH1 0x40 MSTORE CALLVALUE DUP1 ISZERO PUSH2 0xF JUMPI PUSH0 DUP1 REVERT JUMPDEST POP PUSH1 0x40 MLOAD PUSH2 0xA17 CODESIZE SUB DUP1 PUSH2 0xA17 DUP4 CODECOPY DUP2 DUP2 ADD PUSH1 0x40 MSTORE DUP2 ADD SWAP1 PUSH2 0x31 SWAP2 SWAP1 PUSH2 0xC9 JUMP JUMPDEST DUP1 PUSH20 0xFFFFFFFFFFFFFFFFFFFFFFFFFFFFFFFFFFFFFFFF AND PUSH1 0x80 DUP2 PUSH20 0xFFFFFFFFFFFFFFFFFFFFFFFFFFFFFFFFFFFFFFFF AND DUP2 MSTORE POP POP POP PUSH2 0xF4 JUMP JUMPDEST PUSH0 DUP1 REVERT JUMPDEST PUSH0 PUSH20 0xFFFFFFFFFFFFFFFFFFFFFFFFFFFFFFFFFFFFFFFF DUP3 AND SWAP1 POP SWAP2 SWAP1 POP JUMP JUMPDEST PUSH0 PUSH2 0x98 DUP3 PUSH2 0x6F JUMP JUMPDEST SWAP1 POP SWAP2 SWAP1 POP JUMP JUMPDEST PUSH2 0xA8 DUP2 PUSH2 0x8E JUMP JUMPDEST DUP2 EQ PUSH2 0xB2 JUMPI PUSH0 DUP1 REVERT JUMPDEST POP JUMP JUMPDEST PUSH0 DUP2 MLOAD SWAP1 POP PUSH2 0xC3 DUP2 PUSH2 0x9F JUMP JUMPDEST SWAP3 SWAP2 POP POP JUMP JUMPDEST PUSH0 PUSH1 0x20 DUP3 DUP5 SUB SLT ISZERO PUSH2 0xDE JUMPI PUSH2 0xDD PUSH2 0x6B JUMP JUMPDEST JUMPDEST PUSH0 PUSH2 0xEB DUP5 DUP3 DUP6 ADD PUSH2 0xB5 JUMP JUMPDEST SWAP2 POP POP SWAP3 SWAP2 POP POP JUMP JUMPDEST PUSH1 0x80 MLOAD PUSH2 0x8EF PUSH2 0x128 PUSH0 CODECOPY PUSH0 DUP2 DUP2 PUSH2 0x107 ADD MSTORE DUP2 DUP2 PUSH2 0x1C0 ADD MSTORE DUP2 DUP2 PUSH2 0x286 ADD MSTORE DUP2 DUP2 PUSH2 0x342 ADD MSTORE PUSH2 0x3E4 ADD MSTORE PUSH2 0x8EF PUSH0 RETURN INVALID PUSH1 0x80 PUSH1 0x40 MSTORE CALLVALUE DUP1 ISZERO PUSH2 0xF JUMPI PUSH0 DUP1 REVERT JUMPDEST POP PUSH1 0x4 CALLDATASIZE LT PUSH2 0x55 JUMPI PUSH0 CALLDATALOAD PUSH1 0xE0 SHR DUP1 PUSH4 0x18160DDD EQ PUSH2 0x59 JUMPI DUP1 PUSH4 0x2E1A7D4D EQ PUSH2 0x77 JUMPI DUP1 PUSH4 0x70A08231 EQ PUSH2 0x93 JUMPI DUP1 PUSH4 0xB6B55F25 EQ PUSH2 0xC3 JUMPI DUP1 PUSH4 0xFC0C546A EQ PUSH2 0xDF JUMPI JUMPDEST PUSH0 DUP1 REVERT JUMPDEST PUSH2 0x61 PUSH2 0xFD JUMP JUMPDEST PUSH1 0x40 MLOAD PUSH2 0x6E SWAP2 SWAP1 PUSH2 0x4FA JUMP JUMPDEST PUSH1 0x40 MLOAD DUP1 SWAP2 SUB SWAP1 RETURN JUMPDEST PUSH2 0x91 PUSH1 0x4 DUP1 CALLDATASIZE SUB DUP2 ADD SWAP1 PUSH2 0x8C SWAP2 SWAP1 PUSH2 0x541 JUMP JUMPDEST PUSH2 0x102 JUMP JUMPDEST STOP JUMPDEST PUSH2 0xAD PUSH1 0x4 DUP1 CALLDATASIZE SUB DUP2 ADD SWAP1 PUSH2 0xA8 SWAP2 SWAP1 PUSH2 0x5C6 JUMP JUMPDEST PUSH2 0x25E JUMP JUMPDEST PUSH1 0x40 MLOAD PUSH2 0xBA SWAP2 SWAP1 PUSH2 0x4FA JUMP JUMPDEST PUSH1 0x40 MLOAD DUP1 SWAP2 SUB SWAP1 RETURN JUMPDEST PUSH2 0xDD PUSH1 0x4 DUP1 CALLDATASIZE SUB DUP2 ADD SWAP1 PUSH2 0xD8 SWAP2 SWAP1 PUSH2 0x541 JUMP JUMPDEST PUSH2 0x273 JUMP JUMPDEST STOP JUMPDEST PUSH2 0xE7 PUSH2 0x3E2 JUMP JUMPDEST PUSH1 0x40 MLOAD PUSH2 0xF4 SWAP2 SWAP1 PUSH2 0x64C JUMP JUMPDEST PUSH1 0x40 MLOAD DUP1 SWAP2 SUB SWAP1 RETURN JUMPDEST PUSH0 SLOAD DUP2 JUMP JUMPDEST PUSH0 DUP1 SLOAD PUSH32 0x0 PUSH20 0xFFFFFFFFFFFFFFFFFFFFFFFFFFFFFFFFFFFFFFFF AND PUSH4 0x70A08231 ADDRESS PUSH1 0x40 MLOAD DUP3 PUSH4 0xFFFFFFFF AND PUSH1 0xE0 SHL DUP2 MSTORE PUSH1 0x4 ADD PUSH2 0x15E SWAP2 SWAP1 PUSH2 0x674 JUMP JUMPDEST PUSH1 0x20 PUSH1 0x40 MLOAD DUP1 DUP4 SUB DUP2 DUP7 GAS STATICCALL ISZERO DUP1 ISZERO PUSH2 0x179 JUMPI RETURNDATASIZE PUSH0 DUP1 RETURNDATACOPY RETURNDATASIZE PUSH0 REVERT JUMPDEST POP POP POP POP PUSH1 0x40 MLOAD RETURNDATASIZE PUSH1 0x1F NOT PUSH1 0x1F DUP3 ADD AND DUP3 ADD DUP1 PUSH1 0x40 MSTORE POP DUP2 ADD SWAP1 PUSH2 0x19D SWAP2 SWAP1 PUSH2 0x6A1 JUMP JUMPDEST DUP4 PUSH2 0x1A8 SWAP2 SWAP1 PUSH2 0x6F9 JUMP JUMPDEST PUSH2 0x1B2 SWAP2 SWAP1 PUSH2 0x767 JUMP JUMPDEST SWAP1 POP PUSH2 0x1BE CALLER DUP4 PUSH2 0x406 JUMP JUMPDEST PUSH32 0x0 PUSH20 0xFFFFFFFFFFFFFFFFFFFFFFFFFFFFFFFFFFFFFFFF AND PUSH4 0xA9059CBB CALLER DUP4 PUSH1 0x40 MLOAD DUP4 PUSH4 0xFFFFFFFF AND PUSH1 0xE0 SHL DUP2 MSTORE PUSH1 0x4 ADD PUSH2 0x219 SWAP3 SWAP2 SWAP1 PUSH2 0x797 JUMP JUMPDEST PUSH1 0x20 PUSH1 0x40 MLOAD DUP1 DUP4 SUB DUP2 PUSH0 DUP8 GAS CALL ISZERO DUP1 ISZERO PUSH2 0x235 JUMPI RETURNDATASIZE PUSH0 DUP1 RETURNDATACOPY RETURNDATASIZE PUSH0 REVERT JUMPDEST POP POP POP POP PUSH1 0x40 MLOAD RETURNDATASIZE PUSH1 0x1F NOT PUSH1 0x1F DUP3 ADD AND DUP3 ADD DUP1 PUSH1 0x40 MSTORE POP DUP2 ADD SWAP1 PUSH2 0x259 SWAP2 SWAP1 PUSH2 0x7F3 JUMP JUMPDEST POP POP POP JUMP JUMPDEST PUSH1 0x1 PUSH1 0x20 MSTORE DUP1 PUSH0 MSTORE PUSH1 0x40 PUSH0 KECCAK256 PUSH0 SWAP2 POP SWAP1 POP SLOAD DUP2 JUMP JUMPDEST PUSH0 DUP1 PUSH0 SLOAD SUB PUSH2 0x284 JUMPI DUP2 SWAP1 POP PUSH2 0x336 JUMP JUMPDEST PUSH32 0x0 PUSH20 0xFFFFFFFFFFFFFFFFFFFFFFFFFFFFFFFFFFFFFFFF AND PUSH4 0x70A08231 ADDRESS PUSH1 0x40 MLOAD DUP3 PUSH4 0xFFFFFFFF AND PUSH1 0xE0 SHL DUP2 MSTORE PUSH1 0x4 ADD PUSH2 0x2DD SWAP2 SWAP1 PUSH2 0x674 JUMP JUMPDEST PUSH1 0x20 PUSH1 0x40 MLOAD DUP1 DUP4 SUB DUP2 DUP7 GAS STATICCALL ISZERO DUP1 ISZERO PUSH2 0x2F8 JUMPI RETURNDATASIZE PUSH0 DUP1 RETURNDATACOPY RETURNDATASIZE PUSH0 REVERT JUMPDEST POP POP POP POP PUSH1 0x40 MLOAD RETURNDATASIZE PUSH1 0x1F NOT PUSH1 0x1F DUP3 ADD AND DUP3 ADD DUP1 PUSH1 0x40 MSTORE POP DUP2 ADD SWAP1 PUSH2 0x31C SWAP2 SWAP1 PUSH2 0x6A1 JUMP JUMPDEST PUSH0 SLOAD DUP4 PUSH2 0x329 SWAP2 SWAP1 PUSH2 0x6F9 JUMP JUMPDEST PUSH2 0x333 SWAP2 SWAP1 PUSH2 0x767 JUMP JUMPDEST SWAP1 POP JUMPDEST PUSH2 0x340 CALLER DUP3 PUSH2 0x474 JUMP JUMPDEST PUSH32 0x0 PUSH20 0xFFFFFFFFFFFFFFFFFFFFFFFFFFFFFFFFFFFFFFFF AND PUSH4 0x23B872DD CALLER ADDRESS DUP6 PUSH1 0x40 MLOAD DUP5 PUSH4 0xFFFFFFFF AND PUSH1 0xE0 SHL DUP2 MSTORE PUSH1 0x4 ADD PUSH2 0x39D SWAP4 SWAP3 SWAP2 SWAP1 PUSH2 0x81E JUMP JUMPDEST PUSH1 0x20 PUSH1 0x40 MLOAD DUP1 DUP4 SUB DUP2 PUSH0 DUP8 GAS CALL ISZERO DUP1 ISZERO PUSH2 0x3B9 JUMPI RETURNDATASIZE PUSH0 DUP1 RETURNDATACOPY RETURNDATASIZE PUSH0 REVERT JUMPDEST POP POP POP POP PUSH1 0x40 MLOAD RETURNDATASIZE PUSH1 0x1F NOT PUSH1 0x1F DUP3 ADD AND DUP3 ADD DUP1 PUSH1 0x40 MSTORE POP DUP2 ADD SWAP1 PUSH2 0x3DD SWAP2 SWAP1 PUSH2 0x7F3 JUMP JUMPDEST POP POP POP JUMP JUMPDEST PUSH32 0x0 DUP2 JUMP JUMPDEST DUP1 PUSH0 DUP1 DUP3 DUP3 SLOAD PUSH2 0x416 SWAP2 SWAP1 PUSH2 0x853 JUMP JUMPDEST SWAP3 POP POP DUP2 SWAP1 SSTORE POP DUP1 PUSH1 0x1 PUSH0 DUP5 PUSH20 0xFFFFFFFFFFFFFFFFFFFFFFFFFFFFFFFFFFFFFFFF AND PUSH20 0xFFFFFFFFFFFFFFFFFFFFFFFFFFFFFFFFFFFFFFFF AND DUP2 MSTORE PUSH1 0x20 ADD SWAP1 DUP2 MSTORE PUSH1 0x20 ADD PUSH0 KECCAK256 PUSH0 DUP3 DUP3 SLOAD PUSH2 0x469 SWAP2 SWAP1 PUSH2 0x853 JUMP JUMPDEST SWAP3 POP POP DUP2 SWAP1 SSTORE POP POP POP JUMP JUMPDEST DUP1 PUSH0 DUP1 DUP3 DUP3 SLOAD PUSH2 0x484 SWAP2 SWAP1 PUSH2 0x886 JUMP JUMPDEST SWAP3 POP POP DUP2 SWAP1 SSTORE POP DUP1 PUSH1 0x1 PUSH0 DUP5 PUSH20 0xFFFFFFFFFFFFFFFFFFFFFFFFFFFFFFFFFFFFFFFF AND PUSH20 0xFFFFFFFFFFFFFFFFFFFFFFFFFFFFFFFFFFFFFFFF AND DUP2 MSTORE PUSH1 0x20 ADD SWAP1 DUP2 MSTORE PUSH1 0x20 ADD PUSH0 KECCAK256 PUSH0 DUP3 DUP3 SLOAD PUSH2 0x4D7 SWAP2 SWAP1 PUSH2 0x886 JUMP JUMPDEST SWAP3 POP POP DUP2 SWAP1 SSTORE POP POP POP JUMP JUMPDEST PUSH0 DUP2 SWAP1 POP SWAP2 SWAP1 POP JUMP JUMPDEST PUSH2 0x4F4 DUP2 PUSH2 0x4E2 JUMP JUMPDEST DUP3 MSTORE POP POP JUMP JUMPDEST PUSH0 PUSH1 0x20 DUP3 ADD SWAP1 POP PUSH2 0x50D PUSH0 DUP4 ADD DUP5 PUSH2 0x4EB JUMP JUMPDEST SWAP3 SWAP2 POP POP JUMP JUMPDEST PUSH0 DUP1 REVERT JUMPDEST PUSH2 0x520 DUP2 PUSH2 0x4E2 JUMP JUMPDEST DUP2 EQ PUSH2 0x52A JUMPI PUSH0 DUP1 REVERT JUMPDEST POP JUMP JUMPDEST PUSH0 DUP2 CALLDATALOAD SWAP1 POP PUSH2 0x53B DUP2 PUSH2 0x517 JUMP JUMPDEST SWAP3 SWAP2 POP POP JUMP JUMPDEST PUSH0 PUSH1 0x20 DUP3 DUP5 SUB SLT ISZERO PUSH2 0x556 JUMPI PUSH2 0x555 PUSH2 0x513 JUMP JUMPDEST JUMPDEST PUSH0 PUSH2 0x563 DUP5 DUP3 DUP6 ADD PUSH2 0x52D JUMP JUMPDEST SWAP2 POP POP SWAP3 SWAP2 POP POP JUMP JUMPDEST PUSH0 PUSH20 0xFFFFFFFFFFFFFFFFFFFFFFFFFFFFFFFFFFFFFFFF DUP3 AND SWAP1 POP SWAP2 SWAP1 POP JUMP JUMPDEST PUSH0 PUSH2 0x595 DUP3 PUSH2 0x56C JUMP JUMPDEST SWAP1 POP SWAP2 SWAP1 POP JUMP JUMPDEST PUSH2 0x5A5 DUP2 PUSH2 0x58B JUMP JUMPDEST DUP2 EQ PUSH2 0x5AF JUMPI PUSH0 DUP1 REVERT JUMPDEST POP JUMP JUMPDEST PUSH0 DUP2 CALLDATALOAD SWAP1 POP PUSH2 0x5C0 DUP2 PUSH2 0x59C JUMP JUMPDEST SWAP3 SWAP2 POP POP JUMP JUMPDEST PUSH0 PUSH1 0x20 DUP3 DUP5 SUB SLT ISZERO PUSH2 0x5DB JUMPI PUSH2 0x5DA PUSH2 0x513 JUMP JUMPDEST JUMPDEST PUSH0 PUSH2 0x5E8 DUP5 DUP3 DUP6 ADD PUSH2 0x5B2 JUMP JUMPDEST SWAP2 POP POP SWAP3 SWAP2 POP POP JUMP JUMPDEST PUSH0 DUP2 SWAP1 POP SWAP2 SWAP1 POP JUMP JUMPDEST PUSH0 PUSH2 0x614 PUSH2 0x60F PUSH2 0x60A DUP5 PUSH2 0x56C JUMP JUMPDEST PUSH2 0x5F1 JUMP JUMPDEST PUSH2 0x56C JUMP JUMPDEST SWAP1 POP SWAP2 SWAP1 POP JUMP JUMPDEST PUSH0 PUSH2 0x625 DUP3 PUSH2 0x5FA JUMP JUMPDEST SWAP1 POP SWAP2 SWAP1 POP JUMP JUMPDEST PUSH0 PUSH2 0x636 DUP3 PUSH2 0x61B JUMP JUMPDEST SWAP1 POP SWAP2 SWAP1 POP JUMP JUMPDEST PUSH2 0x646 DUP2 PUSH2 0x62C JUMP JUMPDEST DUP3 MSTORE POP POP JUMP JUMPDEST PUSH0 PUSH1 0x20 DUP3 ADD SWAP1 POP PUSH2 0x65F PUSH0 DUP4 ADD DUP5 PUSH2 0x63D JUMP JUMPDEST SWAP3 SWAP2 POP POP JUMP JUMPDEST PUSH2 0x66E DUP2 PUSH2 0x58B JUMP JUMPDEST DUP3 MSTORE POP POP JUMP JUMPDEST PUSH0 PUSH1 0x20 DUP3 ADD SWAP1 POP PUSH2 0x687 PUSH0 DUP4 ADD DUP5 PUSH2 0x665 JUMP JUMPDEST SWAP3 SWAP2 POP POP JUMP JUMPDEST PUSH0 DUP2 MLOAD SWAP1 POP PUSH2 0x69B DUP2 PUSH2 0x517 JUMP JUMPDEST SWAP3 SWAP2 POP POP JUMP JUMPDEST PUSH0 PUSH1 0x20 DUP3 DUP5 SUB SLT ISZERO PUSH2 0x6B6 JUMPI PUSH2 0x6B5 PUSH2 0x513 JUMP JUMPDEST JUMPDEST PUSH0 PUSH2 0x6C3 DUP5 DUP3 DUP6 ADD PUSH2 0x68D JUMP JUMPDEST SWAP2 POP POP SWAP3 SWAP2 POP POP JUMP JUMPDEST PUSH32 0x4E487B7100000000000000000000000000000000000000000000000000000000 PUSH0 MSTORE PUSH1 0x11 PUSH1 0x4 MSTORE PUSH1 0x24 PUSH0 REVERT JUMPDEST PUSH0 PUSH2 0x703 DUP3 PUSH2 0x4E2 JUMP JUMPDEST SWAP2 POP PUSH2 0x70E DUP4 PUSH2 0x4E2 JUMP JUMPDEST SWAP3 POP DUP3 DUP3 MUL PUSH2 0x71C DUP2 PUSH2 0x4E2 JUMP JUMPDEST SWAP2 POP DUP3 DUP3 DIV DUP5 EQ DUP4 ISZERO OR PUSH2 0x733 JUMPI PUSH2 0x732 PUSH2 0x6CC JUMP JUMPDEST JUMPDEST POP SWAP3 SWAP2 POP POP JUMP JUMPDEST PUSH32 0x4E487B7100000000000000000000000000000000000000000000000000000000 PUSH0 MSTORE PUSH1 0x12 PUSH1 0x4 MSTORE PUSH1 0x24 PUSH0 REVERT JUMPDEST PUSH0 PUSH2 0x771 DUP3 PUSH2 0x4E2 JUMP JUMPDEST SWAP2 POP PUSH2 0x77C DUP4 PUSH2 0x4E2 JUMP JUMPDEST SWAP3 POP DUP3 PUSH2 0x78C JUMPI PUSH2 0x78B PUSH2 0x73A JUMP JUMPDEST JUMPDEST DUP3 DUP3 DIV SWAP1 POP SWAP3 SWAP2 POP POP JUMP JUMPDEST PUSH0 PUSH1 0x40 DUP3 ADD SWAP1 POP PUSH2 0x7AA PUSH0 DUP4 ADD DUP6 PUSH2 0x665 JUMP JUMPDEST PUSH2 0x7B7 PUSH1 0x20 DUP4 ADD DUP5 PUSH2 0x4EB JUMP JUMPDEST SWAP4 SWAP3 POP POP POP JUMP JUMPDEST PUSH0 DUP2 ISZERO ISZERO SWAP1 POP SWAP2 SWAP1 POP JUMP JUMPDEST PUSH2 0x7D2 DUP2 PUSH2 0x7BE JUMP JUMPDEST DUP2 EQ PUSH2 0x7DC JUMPI PUSH0 DUP1 REVERT JUMPDEST POP JUMP JUMPDEST PUSH0 DUP2 MLOAD SWAP1 POP PUSH2 0x7ED DUP2 PUSH2 0x7C9 JUMP JUMPDEST SWAP3 SWAP2 POP POP JUMP JUMPDEST PUSH0 PUSH1 0x20 DUP3 DUP5 SUB SLT ISZERO PUSH2 0x808 JUMPI PUSH2 0x807 PUSH2 0x513 JUMP JUMPDEST JUMPDEST PUSH0 PUSH2 0x815 DUP5 DUP3 DUP6 ADD PUSH2 0x7DF JUMP JUMPDEST SWAP2 POP POP SWAP3 SWAP2 POP POP JUMP JUMPDEST PUSH0 PUSH1 0x60 DUP3 ADD SWAP1 POP PUSH2 0x831 PUSH0 DUP4 ADD DUP7 PUSH2 0x665 JUMP JUMPDEST PUSH2 0x83E PUSH1 0x20 DUP4 ADD DUP6 PUSH2 0x665 JUMP JUMPDEST PUSH2 0x84B PUSH1 0x40 DUP4 ADD DUP5 PUSH2 0x4EB JUMP JUMPDEST SWAP5 SWAP4 POP POP POP POP JUMP JUMPDEST PUSH0 PUSH2 0x85D DUP3 PUSH2 0x4E2 JUMP JUMPDEST SWAP2 POP PUSH2 0x868 DUP4 PUSH2 0x4E2 JUMP JUMPDEST SWAP3 POP DUP3 DUP3 SUB SWAP1 POP DUP2 DUP2 GT ISZERO PUSH2 0x880 JUMPI PUSH2 0x87F PUSH2 0x6CC JUMP JUMPDEST JUMPDEST SWAP3 SWAP2 POP POP JUMP JUMPDEST PUSH0 PUSH2 0x890 DUP3 PUSH2 0x4E2 JUMP JUMPDEST SWAP2 POP PUSH2 0x89B DUP4 PUSH2 0x4E2 JUMP JUMPDEST SWAP3 POP DUP3 DUP3 ADD SWAP1 POP DUP1 DUP3 GT ISZERO PUSH2 0x8B3 JUMPI PUSH2 0x8B2 PUSH2 0x6CC JUMP JUMPDEST JUMPDEST SWAP3 SWAP2 POP POP JUMP INVALID LOG2 PUSH5 0x6970667358 0x22 SLT KECCAK256 TSTORE BLOBBASEFEE 0xCA LOG2 0xED PUSH32 0x7DA6053DFFB8463FA467A350F5C4F26FB3D702C11EA77F61F11964736F6C6343 STOP ADDMOD BYTE STOP CALLER "
				},
				"gasEstimates": {
					"creation": {
						"codeDepositCost": "457400",
						"executionCost": "infinite",
						"totalCost": "infinite"
					},
					"external": {
						"balanceOf(address)": "2824",
						"deposit(uint256)": "infinite",
						"token()": "infinite",
						"totalSupply()": "2402",
						"withdraw(uint256)": "infinite"
					},
					"internal": {
						"_burn(address,uint256)": "infinite",
						"_mint(address,uint256)": "infinite"
					}
				},
				"methodIdentifiers": {
					"balanceOf(address)": "70a08231",
					"deposit(uint256)": "b6b55f25",
					"token()": "fc0c546a",
					"totalSupply()": "18160ddd",
					"withdraw(uint256)": "2e1a7d4d"
				}
			},
			"storageLayout": {
				"storage": [
					{
						"astId": 73,
						"contract": "contracts/vault.sol:Vault",
						"label": "totalSupply",
						"offset": 0,
						"slot": "0",
						"type": "t_uint256"
					},
					{
						"astId": 77,
						"contract": "contracts/vault.sol:Vault",
						"label": "balanceOf",
						"offset": 0,
						"slot": "1",
						"type": "t_mapping(t_address,t_uint256)"
					}
				],
				"types": {
					"t_address": {
						"encoding": "inplace",
						"label": "address",
						"numberOfBytes": "20"
					},
					"t_mapping(t_address,t_uint256)": {
						"encoding": "mapping",
						"key": "t_address",
						"label": "mapping(address => uint256)",
						"numberOfBytes": "32",
						"value": "t_uint256"
					},
					"t_uint256": {
						"encoding": "inplace",
						"label": "uint256",
						"numberOfBytes": "32"
					}
				}
			},
			"userdoc": {
				"kind": "user",
				"methods": {},
				"version": 1
			}
		}
	}
}